:02000000502886
:10000800A300030EA4000B1D1928A016A20A22089B
:10001800023C03191328C83081000B111928201637
:10002800C8308100A2010B1119280B1C4B2803139F
:1000380083120618282886182A2806192C288619B3
:100048002E28061A30284A2835144A28B5144A2872
:1000580035154A28B5154A2820183B28A0183E28E7
:1000680020194128211A4428A01947284A28A014F1
:1000780020104A282015A0104A28211620114A28A5
:10008800A01521124A282014A0114A280B10240E6A
:100098008300A30E230E09009B23C123AE23031361
:1000A80083120130A0000030AF000030B0000130F2
:1000B800B3000030B4000130B2000130AE000130AE
:1000C800AF0020188128A018B9282019E428211A7F
:1000D8000D29A0190B29652882073F3406345B34A3
:1000E8004F3466346D347D3407347F346F3477345D
:1000F8007C3439345E3479347134A01E6528201A72
:10010800A60A051485140515851526080A3C031941
:100118000E21CE210814260870208700CE21081051
:100128008814270870208700CE2188100815290810
:1001380070208700CE21081188152A0870208700B2
:10014800CE21881108162C0870208700CE210812AD
:1001580088162D0870208700CE218812051085107A
:10016800051185112012A0126528B71BBD28B71FDD
:10017800CA2835186F22B518DD2235196123B5193B
:100188007C23B7133510B5103511B511CE210815DC
:10019800330870208700CE21081188153408702094
:1001A8008700CE21881108162F0870208700CE21DD
:1001B80008128816300870208700CE21881265281A
:1001C8000815290870208700CE21081188152A08EB
:1001D80070208700CE21881108162C08702087000F
:1001E800CE21081288162D0870208700CE2188128B
:1001F8003518E021B51824223519D221B519F7216F
:10020800A601A7013510B5103511B5116528B71726
:10021800B9286528A601A70A2708063C0319152945
:100228000800A701A90AA80A29080A3C03191D29D8
:100238000800A901AA0A2A08063C0319242908006B
:10024800AA01A801AC0AAB0A2B08183C03193429E7
:100258002C080A3C031931290800AC01AD0A080032
:10026800AD01AC01AB013208013C031D3C296F29EB
:100278003208023C031D412992293208033C031D20
:1002880046296F293208043C031D4B29AA29320844
:10029800053C031D50296F293208063C031D5529CA
:1002A800AA293208073C031D5A296F293208083C3D
:1002B800031D5F296F293208093C031D6429AA29F7
:1002C80032080A3C031D69296F2932080B3C031DBB
:1002D8006E29AA296F292E081F3C03197E29AE0A08
:1002E800AF0A2F080A3C0319B00A2F080A3C031961
:1002F800AF01CD290130AE000130AF000030B000B1
:1003080032080C3C03198B29B20AB30ACD290030F4
:10031800B4000130B3000130B200CD292E081C3CD6
:100328000319A129AE0AAF0A2F080A3C0319B00A1B
:100338002F080A3C0319AF01CD290130AE00013066
:10034800AF000030B000B20AB30ACD292E081E3C17
:100358000319B929AE0AAF0A2F080A3C0319B00AD3
:100368002F080A3C0319AF01CD290130AE00013036
:10037800AF000030B0003308093C0319C629B30A9E
:10038800B20ACD290030B3000130B4000A30B200FF
:10039800CD290800A01ECE29A0120800A90A290804
:1003A8000A3C0319AA0A29080A3C0319A9012A08C0
:1003B800063C0319AA010800AC0AAB0A2B08183C32
:1003C8000319F3292C080A3C0319AD0A2C080A3C26
:1003D8000319AC012D08063C0319AD010800AC0156
:1003E800AD01AB0108002908003C031919222908AE
:1003F800003C031D3513351F1522351B1D22B51F63
:10040800112A2A08003C03191B222A08003C031D54
:10041800B512B51E1722B51A2122B5133513B51218
:100428000800A9030800AA03080035170800B51634
:1004380008000930A900B51708000530AA0008000F
:100448002B08003C031936142B08003C031DB61476
:100458002C08003C031951222C08003C031D3611BE
:10046800361D4C2236195522B61D462A2D08003C49
:10047800031953222D08003C031D3612361E4F2245
:10048800361A5A223610B6103611B611361208002E
:10049800AC03AB030800AD03080036150800361698
:1004A800080036186922B618642208003618612236
:1004B800B6185F220800AD0308000230AD0008003E
:1004C800AB030930AC00B61508001730AB00033099
:1004D800AC00B61508003208013C031D742AC62A70
:1004E8003208023C031D792AA82A3208033C031D5E
:1004F8007E2AC62A3208043C031D832AB72A3208FA
:10050800053C031D882AC62A3208063C031D8D2A8D
:10051800B72A3208073C031D922AC62A3208083C2B
:10052800031D972AC62A3208093C031D9C2AB72AAC
:1005380032080A3C031DA12AC62A32080B3C031DB7
:10054800A62AB72A1F30C62A2E081C3C0319D52A0A
:10055800AE0AAF0A2F080A3C0319B00A2F080A3C52
:100568000319AF01DC2A2E081E3C0319D52AAE0A4E
:10057800AF0A2F080A3C0319B00A2F080A3C0319CE
:10058800AF01DC2A2E081F3C0319D52AAE0AAF0A90
:100598002F080A3C0319B00A2F080A3C0319AF01B7
:1005A800DC2A0130AE000130AF000030B000DC2A98
:1005B800080003138312AE033208013C031DE52A29
:1005C800182B3208023C031DEA2A292B3208033C67
:1005D800031DEF2A182B3208043C031DF42A3A2B7A
:1005E8003208053C031DF92A182B3208063C031D66
:1005F800FE2A3A2B3208073C031D032B182B32081E
:10060800083C031D082B182B3208093C031D0D2B31
:100618003A2B32080A3C031D122B182B32080B3CCC
:10062800031D172B3A2B182B2E08003C0319522BAD
:100638002F08003C0319B0032F08003C031D272B8B
:100648000930AF00602BAF03602B2E08003C031964
:10065800592B2F08003C0319B0032F08003C031D39
:10066800382B0930AF00602BAF03602B2E08003CFD
:1006780003194B2B2F08003C0319B0032F08003C2B
:10068800031D492B0930AF00602BAF03602B1E30D0
:10069800AE000030AF000330B000602B1F30AE005A
:1006A8000130AF000330B000602B1C30AE000830C2
:1006B800AF000230B000602B0800B20AB30A32085B
:1006C8000D3C0319682B6D2BB4010130B3000130C8
:1006D800B20033080A3C0319B40A33080A3C031968
:1006E800B30136130130AE000130AF00B00108008D
:1006F80003138312B2033208003C0319892B320812
:10070800093C0319902BB303942B0C30B200023030
:10071800B3000130B400942B0030B4000930B300AA
:100728000130AE000130AF00B001361308000313EA
:1007380083168501FF308600870188010317831619
:10074800880189010313831285018601870100301E
:1007580088000800031383160F178F120F120F1447
:1007680003138316811281110115811401140313D7
:100778008312C83081000B1108008B160B1103136C
:0E0788008316FF3096008B150B108B170800A0
:04400E00D420FF3F7C
:00000001FF
