:02000000502886
:10000800A200030EA3000B1D1928A016A10A21089F
:10001800023C03191328C83081000B111928201637
:10002800C8308100A1010B1119280B1C4B280313A0
:1000380083120618282886182A2806192C288619B3
:100048002E28061A30284A2834144A28B4144A2874
:1000580034154A28B4154A2820183B28A0183E28E9
:100068002019412838184428A01947284A28A014DC
:1000780020104A282015A0104A28A01520114A2827
:100088003814A0114A28201438104A280B10230EBF
:100098008300A20E220E0900A823CE23BB2303133C
:1000A80083120130A0000030AE000030AF000130F4
:1000B800B2000030B3000130B1000130AD000130B2
:1000C800AE0020187028A018A8282019D32838189E
:1000D800FC28A019FA286528A01E6528201AA50A58
:1000E800051485140515851525080A3C03191B21D7
:1000F800DB2108142508FD208700DB21081088145F
:100108002608FD208700DB21881008152808FD2017
:100118008700DB21081188152908FD208700DB21CD
:10012800881108162B08FD208700DB210812881685
:100138002C08FD208700DB21881205108510051189
:1001480085112012A0126528B61BAC28B61FB92845
:1001580034187C22B418EA2234196E23B41989237E
:10016800B6133410B4103411B411DB210815320859
:10017800FD208700DB21081188153308FD20870042
:10018800DB21881108162E08FD208700DB210812C4
:1001980088162F08FD208700DB218812652808159E
:1001A8002808FD208700DB21081188152908FD2073
:1001B8008700DB21881108162B08FD208700DB212A
:1001C800081288162C08FD208700DB2188123418B5
:1001D800ED21B41831223419DF21B4190422A50104
:1001E800A6013410B4103411B4116528B617A82824
:1001F800080082073F3406345B344F3466346D346C
:100208007D3407347F346F3477347C3439345E344A
:100218007934713482071F341C341F341E341F3460
:100228001E341F341F341E341F341E341F34A501DE
:10023800A60A2608063C031922290800A601A80ACE
:10024800A70A28080A3C03192A290800A801A90AAC
:100258002908063C031931290800A901A701AB0A9E
:10026800AA0A2A08183C031941292B080A3C031931
:100278003E290800AB01AC0A0800AC01AB01AA0199
:100288003108013C031D49297C293108023C031D22
:100298004E299F293108033C031D53297C29310825
:1002A800043C031D5829B7293108053C031D5D2965
:1002B8007C293108063C031D6229B7293108073C0F
:1002C800031D67297C293108083C031D6C297C29FA
:1002D8003108093C031D7129B72931080A3C031D5F
:1002E80076297C2931080B3C031D7B29B7297C29F9
:1002F8002D081F3C03198B29AD0AAE0A2E080A3CAB
:100308000319AF0A2E080A3C0319AE01DA29013095
:10031800AD000130AE000030AF0031080C3C0319CD
:100328009829B10AB20ADA290030B3000130B200C4
:100338000130B100DA292D081C3C0319AE29AD0A99
:10034800AE0A2E080A3C0319AF0A2E080A3C031904
:10035800AE01DA290130AD000130AE000030AF0047
:10036800B10AB20ADA292D081E3C0319C629AD0ABA
:10037800AE0A2E080A3C0319AF0A2E080A3C0319D4
:10038800AE01DA290130AD000130AE000030AF0017
:100398003208093C0319D329B20AB10ADA29003014
:1003A800B2000130B3000A30B100DA290800A01EFB
:1003B800DB29A0120800A80A28080A3C0319A90A80
:1003C80028080A3C0319A8012908063C0319A901B1
:1003D8000800AB0AAA0A2A08183C0319002A2B08A5
:1003E8000A3C0319AC0A2B080A3C0319AB012C0878
:1003F800063C0319AC010800AB01AC01AA010800D6
:100408002808003C031926222808003C031D341341
:10041800341F2222341B2A22B41F1E2A2908003C1A
:10042800031928222908003C031DB412B41E2422F3
:10043800B41A2E22B4133413B4120800A803080007
:10044800A903080034170800B41608000930A800EA
:10045800B41708000530A90008002A08003C031951
:1004680035142A08003C031DB5142B08003C031959
:100478005E222B08003C031D3511351D5922351904
:100488006222B51D532A2C08003C031960222C084F
:10049800003C031D3512351E5C22351A67223510C3
:1004A800B5103511B51135120800AB03AA030800C1
:1004B800AC030800351508003516080035187622F3
:1004C800B5187122080035186E22B5186C2208007C
:1004D800AC0308000230AC000800AA030930AB00E6
:1004E800B51508001730AA000330AB00B515080091
:1004F8003108013C031D812AD32A3108023C031D1F
:10050800862AB52A3108033C031D8B2AD32A3108D1
:10051800043C031D902AC42A3108053C031D952A72
:10052800D32A3108063C031D9A2AC42A3108073CFD
:10053800031D9F2AD32A3108083C031DA42AD32A65
:100548003108093C031DA92AC42A31080A3C031DA5
:10055800AE2AD32A31080B3C031DB32AC42A1F3004
:10056800D32A2D081C3C0319E22AAD0AAE0A2E082C
:100578000A3C0319AF0A2E080A3C0319AE01E92AFE
:100588002D081E3C0319E22AAD0AAE0A2E080A3CC1
:100598000319AF0A2E080A3C0319AE01E92A2D08EF
:1005A8001F3C0319E22AAD0AAE0A2E080A3C0319B9
:1005B800AF0A2E080A3C0319AE01E92A0130AD0042
:1005C8000130AE000030AF00E92A0800031383129F
:1005D800AD033108013C031DF22A252B3108023CEA
:1005E800031DF72A362B3108033C031DFC2A252B53
:1005F8003108043C031D012B472B3108053C031D22
:10060800062B252B3108063C031D0B2B472B3108E5
:10061800073C031D102B252B3108083C031D152B07
:10062800252B3108093C031D1A2B472B31080A3C9E
:10063800031D1F2B252B31080B3C031D242B472B97
:10064800252B2D08003C03195F2B2E08003C0319AD
:10065800AF032E08003C031D342B0930AE006D2B70
:10066800AE036D2B2D08003C0319662B2E08003CA9
:100678000319AF032E08003C031D452B0930AE00BB
:100688006D2BAE036D2B2D08003C0319582B2E083B
:10069800003C0319AF032E08003C031D562B0930FC
:1006A800AE006D2BAE036D2B1E30AD000030AE00DA
:1006B8000330AF006D2B1F30AD000130AE000330AA
:1006C800AF006D2B1C30AD000830AE000230AF001B
:1006D8006D2B0800B10AB20A31080D3C0319752BBD
:1006E8007A2BB3010130B2000130B10032080A3C64
:1006F8000319B30A32080A3C0319B2013513013051
:10070800AD000130AE00AF01080003138312B1033E
:100718003108003C0319962B3108093C03199D2B1D
:10072800B203A12B0C30B1000230B2000130B3008B
:10073800A12B0030B3000930B2000130AD00013008
:10074800AE00AF0135130800031383168501FF308F
:10075800860087018801031783168801890103131E
:100768008312850186018701003088000800031381
:1007780083160F178F120F120F140313831681128B
:10078800811101158114011403138312C8308100EB
:100798000B1108008B160B1103138316FF309600FC
:0807A8008B150B108B170800E4
:04400E00D420FF3F7C
:00000001FF
