:020000005B287B
:10000800A300030EA4000B1D1928A016A20A22089B
:10001800033C03191328D13081000B11192820162D
:10002800D1308100A2010B1119280B1C5628211F61
:100038002117031383120618332886183528061942
:10004800372886193928061A3B28861A2E28061BAF
:1000580030285528A1155528A111851355283B147A
:100068005528BB1455283B155528BB15552820186D
:100078004628A018492820194C28211A4F28A019C9
:1000880052285528A014201055282015A0105528AE
:10009800211620115528A015211255282014A01129
:1000A80055280B10240E8300A30E230E0900B92433
:1000B800DF24CC24031383120130A0000030B500E4
:1000C8000030B6000130B9000030BA000130B80085
:1000D8000130B4000130B500211F702873282018A2
:1000E8008F28A0180F2920193A29211A6629A01942
:1000F8006229702882073F3406345B344F346634F3
:100108006D347D3407347F346F3477347C3439343C
:100118005E3479347134A01E7028201AA60A05149A
:1001280085140515851526080A3C03198F214F22C9
:10013800081426087E2087004F22081088142708F4
:100148007E2087004F22881008152A087E20870005
:100158004F22081188152C087E2087004F2288110D
:10016800081630087E2087004F22081288163208A9
:100178007E2087004F2288120510851005118511F1
:1001880085122012A012A119CA280E292A08C20015
:100198002C08C4002B08C3002D08C5003008C60071
:1001A8003108C7003208C8003308C9004308003CBA
:1001B8000319E128C303C203DA284508003C0319E0
:1001C800E828C503C403E1284708003C0319EF28C1
:1001D800C703C603E8284908003C0319F628C903E1
:1001E800C803EF284208003C0319C10A4408003C30
:1001F8000319C10A4608003C0319C10A4808003C13
:100208000319C10A4108043C03190C29C1010E292C
:100218008517C1017028BF1B1329BF1F20293B1850
:100228008D23BB18FB233B197F24BB199A24BF13CA
:100238003B10BB103B11BB114F22081539087E201B
:1002480087004F22081188153A087E2087004F2220
:100258008811081635087E2087004F220812881654
:1002680036087E2087004F22881270280516081548
:100278002A087E2087004F22081188152C087E2026
:1002880087004F228811081630087E2087004F22E9
:100298000812881632087E2087004F2288123B18E1
:1002A8006F22BB18F7223B195322BB199D22A601C6
:1002B800A7013B10BB103B11BB1170280513851615
:1002C800BF170F2908152B087E2087004F22081119
:1002D80088152D087E2087004F22881108163108BE
:1002E8007E2087004F220812881633087E20870058
:1002F8004F228812051205173B188622BB18422385
:100308003B196122BB19CA22A601A7013B10BB10E9
:100318003B11BB117028A601A70A2708063C031940
:1003280096290800A701AA0AA80A2A080A3C03195C
:100338009E290800AA01AC0A2C08063C0319A52925
:100348000800AC01A801B00AAE0A2E08183C03192F
:10035800B52930080A3C0319B2290800B001B20ACD
:100368000800B201B001AE013808013C031DBD29E7
:10037800F0293808023C031DC229132A3808033C17
:10038800031DC729F0293808043C031DCC292B2A52
:100398003808053C031DD129F0293808063C031DFF
:1003A800D6292B2A3808073C031DDB29F0293808F1
:1003B800083C031DE029F0293808093C031DE529FC
:1003C8002B2A38080A3C031DEA29F02938080B3C77
:1003D800031DEF292B2AF02934081F3C0319FF2994
:1003E800B40AB50A35080A3C0319B60A35080A3CA6
:1003F8000319B5014E2A0130B4000130B5000030B0
:10040800B60038080C3C03190C2AB80AB90A4E2A57
:100418000030BA000130B9000130B8004E2A340863
:100428001C3C0319222AB40AB50A35080A3C0319E8
:10043800B60A35080A3C0319B5014E2A0130B40042
:100448000130B5000030B600B80AB90A4E2A34089F
:100458001E3C03193A2AB40AB50A35080A3C03199E
:10046800B60A35080A3C0319B5014E2A0130B40012
:100478000130B5000030B6003908093C0319472A95
:10048800B90AB80A4E2A0030B9000130BA000A3059
:10049800B8004E2A0800A01E4F2AA0120800AA0A77
:1004A8002A080A3C0319AC0A2A080A3C0319AA01BB
:1004B8002C08063C0319AC010800AB0A2B080A3CBF
:1004C8000319AD0A2B080A3C0319AB012D08063C99
:1004D8000319AD010800B00AAE0A2E08183C03192A
:1004E800822A30080A3C0319B20A30080A3C031968
:1004F800B0013208063C0319B2010800B001B2018C
:10050800AE010800B10AAF0A2F08183C0319992A4E
:1005180031080A3C0319B30A31080A3C0319B1012E
:100528003308063C0319B3010800B101B301AF0158
:1005380008002A08003C0319BF222A08003C031DB2
:100548003B133B1FBB223B1BC322BB1FB72A2C08F4
:10055800003C0319C1222C08003C031DBB12BB1E22
:10056800BD22BB1AC722BB133B13BB120800AA0348
:100578000800AC0308003B170800BB160800093048
:10058800AA00BB1708000530AC0008002B08003C87
:100598000319EC222B08003C031D3C133C1FE822E6
:1005A8003C1BF022BC1FE42A2D08003C0319EE2254
:1005B8002D08003C031DBC12BC1EEA22BC1AF42202
:1005C800BC133C13BC120800AB030800AD030800C1
:1005D8003C170800BC1608000930AB00BC1708001F
:1005E8000530AD0008002E08003C03193D142E0804
:1005F800003C031DBD143008003C031924233008B7
:10060800003C031D3D113D1D1F233D192823BD1D21
:10061800192B3208003C031926233208003C031D1D
:100628003D123D1E22233D1A2D233D10BD103D11C4
:10063800BD113D120800B003AE030800B203080064
:100648003D1508003D1608003D183C23BD1837230A
:1006580008003D183423BD1832230800B2030800EF
:100668000230B2000800AE030930B000BD15080022
:100678001730AE000330B000BD1508002F08003C4D
:1006880003193E142F08003C031DBE143108003C1A
:1006980003196F233108003C031D3E113E1D6A23D8
:1006A8003E197323BE1D642B3308003C03197123C4
:1006B8003308003C031D3E123E1E6D233E1A78236C
:1006C8003E10BE103E11BE113E120800B103AF032A
:1006D8000800B30308003E1508003E1608003E183F
:1006E8008723BE18822308003E187F23BE187D2367
:1006F8000800B30308000230B3000800AF03093054
:10070800B100BE1508001730AF000330B100BE15A8
:1007180008003808013C031D922BE42B3808023CE2
:10072800031D972BC62B3808033C031D9C2BE42B79
:100738003808043C031DA12BD52B3808053C031DA4
:10074800A62BE42B3808063C031DAB2BD52B380809
:10075800073C031DB02BE42B3808083C031DB52BC0
:10076800E42B3808093C031DBA2BD52B38080A3C62
:10077800031DBF2BE42B38080B3C031DC42BD52BC2
:100788001F30E42B34081C3C0319F32BB40AB50AB8
:1007980035080A3C0319B60A35080A3C0319B5019D
:1007A800FA2B34081E3C0319F32BB40AB50A350892
:1007B8000A3C0319B60A35080A3C0319B501FA2B95
:1007C80034081F3C0319F32BB40AB50A35080A3C50
:1007D8000319B60A35080A3C0319B501FA2B01308A
:1007E800B4000130B5000030B600FA2B080003133E
:1007F8008312B4033808013C031D032C362C380837
:10080800023C031D082C472C3808033C031D0D2C03
:10081800362C3808043C031D122C582C3808053C8B
:10082800031D172C362C3808063C031D1C2C582C8D
:100838003808073C031D212C362C3808083C031DBA
:10084800262C362C3808093C031D2B2C582C38082C
:100858000A3C031D302C362C38080B3C031D352C64
:10086800582C362C3408003C0319702C3508003CF1
:100878000319B6033508003C031D452C0930B500A3
:100888007E2CB5037E2C3408003C0319772C3508E0
:10089800003C0319B6033508003C031D562C0930EB
:1008A800B5007E2CB5037E2C3408003C0319692C56
:1008B8003508003C0319B6033508003C031D672CB6
:1008C8000930B5007E2CB5037E2C1E30B4000030F4
:1008D800B5000330B6007E2C1F30B4000130B500DF
:1008E8000330B6007E2C1C30B4000830B50002304E
:1008F800B6007E2C0800B80AB90A38080D3C03195E
:10090800862C8B2CBA010130B9000130B8003908A7
:100918000A3C0319BA0A39080A3C0319B9013D13FC
:100928000130B4000130B500B6010800031383128A
:10093800B8033808003C0319A72C3808093C0319E8
:10094800AE2CB903B22C0C30B8000230B90001301B
:10095800BA00B22C0030BA000930B9000130B40036
:100968000130B500B6013D13080003138316850155
:10097800FF308600870188010317831688018901E3
:10098800031383128501860187010030880008005F
:10099800031383160F178F120F120F1403138316E6
:1009A8008112811101158114011403138312D130AE
:1009B80081000B1108008B160B1103138316FF30EF
:0A09C80096008B150B108B1708002A
:04400E00D420FF3F7C
:00000001FF
