:020000004B288B
:10000800A200030EA3000B1D1928A016A10A21089F
:10001800023C03191328C83081000B111928201637
:10002800C8308100A1010B1119280B1C46280313A5
:1000380083120618282886182A2806192C288619B3
:100048002E28061A3028452834144528B414452883
:1000580034154528B415452820183928A0183C28F7
:1000680020193F28A01942284528A0142010452807
:100078002015A0104528A015201145282014A011EE
:1000880045280B10230E8300A20E220E0900C5215D
:10009800EB21D821031383120130A0003417201854
:1000A8005C28A01894282019AE28A019D528532810
:1000B800A01E5328201AA50A0514851405158515B0
:1000C80025080A3C0319F820232108142508D620FE
:1000D80087002321081088142608D62087002321AA
:1000E800881008152808D6208700232108118815AC
:1000F8002908D62087002321881108162B08D62026
:1001080087002321081288162C08D620870023216F
:10011800881205108510051185112012A012532888
:10012800232108152E08D6208700232108118815B9
:100138002F08D62087002321881108163208D620D8
:1001480087002321081288163308D6208700232128
:100158008812532808152808D6208700232108115B
:1001680088152908D62087002321881108162B080E
:10017800D62087002321081288162C08D62087004D
:100188002321881234183521B418792134192721EC
:10019800B4194C21A501A6013410B4103411B411BE
:1001A8005328532882073F3406345B344F3466346F
:1001B8006D347D3407347F346F3477347C3439348C
:1001C8005E347934713482073F3406345B344F34FB
:1001D80066346D347D3407347F346F3477347C343F
:1001E80039345E3479347134A501A60A2608063CF0
:1001F8000319FF280800A601A80AA70A28080A3C2C
:10020800031907290800A801A90A2908063C0319A7
:100218000E290800A901A701AB0AAA0A2A08183C56
:1002280003191E292B080A3C03191B290800AB01D6
:10023800AC0A0800AC01AB01AA012D0A0800A01EF7
:100248002329A0120800A80A28080A3C0319A90AA9
:1002580028080A3C0319A8012908063C0319A90122
:100268000800AB0AAA0A2A08183C031948292B08CF
:100278000A3C0319AC0A2B080A3C0319AB012C08E9
:10028800063C0319AC010800AB01AC01AA01080047
:100298002808003C03196E212808003C031D34136C
:1002A800341F6A21341B7221B41F66292908003CB7
:1002B800031970212908003C031DB412B41E6C21D7
:1002C800B41A7621B4133413B4120800A803080032
:1002D800A903080034170800B41608000930A8005C
:1002E800B41708000530A90008002A08003C0319C3
:1002F80035142A08003C031DB5142B08003C0319CB
:10030800A6212B08003C031D3511351DA1213519E7
:10031800AA21B51D9B292C08003C0319A8212C08EB
:10032800003C031D3512351EA421351AAF213510A6
:10033800B5103511B51135120800AB03AA03080032
:10034800AC03080035150800351608003518BE211D
:10035800B518B92108003518B621B518B421080018
:10036800AC0308000230AC000800AA030930AB0057
:10037800B51508001730AA000330AB00B515080002
:100388000800031383168501FF3086008701880162
:1003980003178316880189010313831285018601D7
:1003A8008701003088000800031383160F178F1287
:1003B8000F120F1403138316811281110115811472
:1003C800011403138312C83081000B1108008B1627
:1003D8000B1103138316FF3096008B150B108B1728
:0203E80008000B
:04400E00D420FF3F7C
:00000001FF
